{
  "_format": "hh-sol-artifact-1",
  "contractName": "Dripper",
  "sourceName": "contracts/vestingContract.sol",
  "abi": [
    {
      "inputs": [],
      "stateMutability": "nonpayable",
      "type": "constructor"
    },
    {
      "inputs": [
        {
          "internalType": "address",
          "name": "spender",
          "type": "address"
        },
        {
          "internalType": "uint256",
          "name": "allowance",
          "type": "uint256"
        },
        {
          "internalType": "uint256",
          "name": "needed",
          "type": "uint256"
        }
      ],
      "name": "ERC20InsufficientAllowance",
      "type": "error"
    },
    {
      "inputs": [
        {
          "internalType": "address",
          "name": "sender",
          "type": "address"
        },
        {
          "internalType": "uint256",
          "name": "balance",
          "type": "uint256"
        },
        {
          "internalType": "uint256",
          "name": "needed",
          "type": "uint256"
        }
      ],
      "name": "ERC20InsufficientBalance",
      "type": "error"
    },
    {
      "inputs": [
        {
          "internalType": "address",
          "name": "approver",
          "type": "address"
        }
      ],
      "name": "ERC20InvalidApprover",
      "type": "error"
    },
    {
      "inputs": [
        {
          "internalType": "address",
          "name": "receiver",
          "type": "address"
        }
      ],
      "name": "ERC20InvalidReceiver",
      "type": "error"
    },
    {
      "inputs": [
        {
          "internalType": "address",
          "name": "sender",
          "type": "address"
        }
      ],
      "name": "ERC20InvalidSender",
      "type": "error"
    },
    {
      "inputs": [
        {
          "internalType": "address",
          "name": "spender",
          "type": "address"
        }
      ],
      "name": "ERC20InvalidSpender",
      "type": "error"
    },
    {
      "inputs": [],
      "name": "NotEnoughAmountUnlocked",
      "type": "error"
    },
    {
      "inputs": [],
      "name": "NotEnoughBalanceToVest",
      "type": "error"
    },
    {
      "inputs": [
        {
          "internalType": "uint256",
          "name": "index",
          "type": "uint256"
        }
      ],
      "name": "NotEnoughBalanceToVestForAccountAtIndex",
      "type": "error"
    },
    {
      "inputs": [
        {
          "internalType": "address",
          "name": "owner",
          "type": "address"
        }
      ],
      "name": "OwnableInvalidOwner",
      "type": "error"
    },
    {
      "inputs": [
        {
          "internalType": "address",
          "name": "account",
          "type": "address"
        }
      ],
      "name": "OwnableUnauthorizedAccount",
      "type": "error"
    },
    {
      "inputs": [],
      "name": "UnauthorizedAccess",
      "type": "error"
    },
    {
      "anonymous": false,
      "inputs": [
        {
          "indexed": true,
          "internalType": "address",
          "name": "owner",
          "type": "address"
        },
        {
          "indexed": true,
          "internalType": "address",
          "name": "spender",
          "type": "address"
        },
        {
          "indexed": false,
          "internalType": "uint256",
          "name": "value",
          "type": "uint256"
        }
      ],
      "name": "Approval",
      "type": "event"
    },
    {
      "anonymous": false,
      "inputs": [
        {
          "indexed": true,
          "internalType": "address",
          "name": "previousOwner",
          "type": "address"
        },
        {
          "indexed": true,
          "internalType": "address",
          "name": "newOwner",
          "type": "address"
        }
      ],
      "name": "OwnershipTransferred",
      "type": "event"
    },
    {
      "anonymous": false,
      "inputs": [
        {
          "indexed": true,
          "internalType": "address",
          "name": "from",
          "type": "address"
        },
        {
          "indexed": true,
          "internalType": "address",
          "name": "to",
          "type": "address"
        },
        {
          "indexed": false,
          "internalType": "uint256",
          "name": "value",
          "type": "uint256"
        }
      ],
      "name": "Transfer",
      "type": "event"
    },
    {
      "inputs": [
        {
          "internalType": "address",
          "name": "owner",
          "type": "address"
        },
        {
          "internalType": "address",
          "name": "spender",
          "type": "address"
        }
      ],
      "name": "allowance",
      "outputs": [
        {
          "internalType": "uint256",
          "name": "",
          "type": "uint256"
        }
      ],
      "stateMutability": "view",
      "type": "function"
    },
    {
      "inputs": [
        {
          "internalType": "address",
          "name": "spender",
          "type": "address"
        },
        {
          "internalType": "uint256",
          "name": "value",
          "type": "uint256"
        }
      ],
      "name": "approve",
      "outputs": [
        {
          "internalType": "bool",
          "name": "",
          "type": "bool"
        }
      ],
      "stateMutability": "nonpayable",
      "type": "function"
    },
    {
      "inputs": [
        {
          "internalType": "address",
          "name": "account",
          "type": "address"
        }
      ],
      "name": "balanceOf",
      "outputs": [
        {
          "internalType": "uint256",
          "name": "",
          "type": "uint256"
        }
      ],
      "stateMutability": "view",
      "type": "function"
    },
    {
      "inputs": [
        {
          "internalType": "uint256",
          "name": "value",
          "type": "uint256"
        }
      ],
      "name": "burn",
      "outputs": [],
      "stateMutability": "nonpayable",
      "type": "function"
    },
    {
      "inputs": [
        {
          "internalType": "address",
          "name": "account",
          "type": "address"
        },
        {
          "internalType": "uint256",
          "name": "value",
          "type": "uint256"
        }
      ],
      "name": "burnFrom",
      "outputs": [],
      "stateMutability": "nonpayable",
      "type": "function"
    },
    {
      "inputs": [],
      "name": "decimals",
      "outputs": [
        {
          "internalType": "uint8",
          "name": "",
          "type": "uint8"
        }
      ],
      "stateMutability": "view",
      "type": "function"
    },
    {
      "inputs": [
        {
          "internalType": "address",
          "name": "",
          "type": "address"
        }
      ],
      "name": "depositedAmount",
      "outputs": [
        {
          "internalType": "uint256",
          "name": "",
          "type": "uint256"
        }
      ],
      "stateMutability": "view",
      "type": "function"
    },
    {
      "inputs": [
        {
          "internalType": "address",
          "name": "walletAddress",
          "type": "address"
        },
        {
          "internalType": "uint256",
          "name": "index",
          "type": "uint256"
        }
      ],
      "name": "getLockedAndUnlockedPerAgreement",
      "outputs": [
        {
          "internalType": "uint256",
          "name": "",
          "type": "uint256"
        },
        {
          "internalType": "uint256",
          "name": "",
          "type": "uint256"
        }
      ],
      "stateMutability": "view",
      "type": "function"
    },
    {
      "inputs": [
        {
          "internalType": "address",
          "name": "walletAddress",
          "type": "address"
        }
      ],
      "name": "getNumberOfVestingAgreement",
      "outputs": [
        {
          "internalType": "uint256",
          "name": "",
          "type": "uint256"
        }
      ],
      "stateMutability": "view",
      "type": "function"
    },
    {
      "inputs": [
        {
          "internalType": "address",
          "name": "walletAddress",
          "type": "address"
        }
      ],
      "name": "getTotalLockedAmountForAddress",
      "outputs": [
        {
          "internalType": "uint256",
          "name": "",
          "type": "uint256"
        }
      ],
      "stateMutability": "view",
      "type": "function"
    },
    {
      "inputs": [
        {
          "internalType": "address",
          "name": "walletAddress",
          "type": "address"
        },
        {
          "internalType": "uint256",
          "name": "index",
          "type": "uint256"
        }
      ],
      "name": "getVestingAgreements",
      "outputs": [
        {
          "components": [
            {
              "internalType": "uint256",
              "name": "vestStartTime",
              "type": "uint256"
            },
            {
              "internalType": "uint256",
              "name": "vestPeriod",
              "type": "uint256"
            },
            {
              "internalType": "uint256",
              "name": "totalAmount",
              "type": "uint256"
            },
            {
              "internalType": "uint256",
              "name": "vestPeriodSize",
              "type": "uint256"
            },
            {
              "internalType": "address",
              "name": "sender",
              "type": "address"
            },
            {
              "internalType": "address",
              "name": "recipient",
              "type": "address"
            },
            {
              "internalType": "uint256",
              "name": "amountWithdrawn",
              "type": "uint256"
            }
          ],
          "internalType": "struct Dripper.VestingAgreement",
          "name": "",
          "type": "tuple"
        }
      ],
      "stateMutability": "view",
      "type": "function"
    },
    {
      "inputs": [
        {
          "internalType": "address",
          "name": "walletAddress",
          "type": "address"
        },
        {
          "internalType": "uint256",
          "name": "index",
          "type": "uint256"
        }
      ],
      "name": "getWithdrawableAmount",
      "outputs": [
        {
          "internalType": "uint256",
          "name": "",
          "type": "uint256"
        }
      ],
      "stateMutability": "view",
      "type": "function"
    },
    {
      "inputs": [
        {
          "internalType": "address",
          "name": "",
          "type": "address"
        }
      ],
      "name": "isAdmin",
      "outputs": [
        {
          "internalType": "bool",
          "name": "",
          "type": "bool"
        }
      ],
      "stateMutability": "view",
      "type": "function"
    },
    {
      "inputs": [
        {
          "internalType": "uint256",
          "name": "amount",
          "type": "uint256"
        },
        {
          "internalType": "address",
          "name": "recipient",
          "type": "address"
        },
        {
          "internalType": "uint256",
          "name": "vestStartTime",
          "type": "uint256"
        },
        {
          "internalType": "uint256",
          "name": "vestPeriod",
          "type": "uint256"
        },
        {
          "internalType": "uint256",
          "name": "vestPeriodSize",
          "type": "uint256"
        }
      ],
      "name": "lockToVestAndTransfer",
      "outputs": [
        {
          "internalType": "bool",
          "name": "",
          "type": "bool"
        }
      ],
      "stateMutability": "nonpayable",
      "type": "function"
    },
    {
      "inputs": [
        {
          "internalType": "address",
          "name": "walletAddress",
          "type": "address"
        },
        {
          "internalType": "address",
          "name": "recipient",
          "type": "address"
        },
        {
          "internalType": "uint256",
          "name": "amount",
          "type": "uint256"
        },
        {
          "internalType": "uint256",
          "name": "vestStartTime",
          "type": "uint256"
        },
        {
          "internalType": "uint256",
          "name": "vestPeriod",
          "type": "uint256"
        },
        {
          "internalType": "uint256",
          "name": "vestPeriodSize",
          "type": "uint256"
        }
      ],
      "name": "lockToVestAndTransfer",
      "outputs": [
        {
          "internalType": "bool",
          "name": "",
          "type": "bool"
        }
      ],
      "stateMutability": "nonpayable",
      "type": "function"
    },
    {
      "inputs": [
        {
          "internalType": "address",
          "name": "to",
          "type": "address"
        },
        {
          "internalType": "uint256",
          "name": "amount",
          "type": "uint256"
        }
      ],
      "name": "mint",
      "outputs": [],
      "stateMutability": "nonpayable",
      "type": "function"
    },
    {
      "inputs": [
        {
          "internalType": "address[]",
          "name": "recipients",
          "type": "address[]"
        },
        {
          "internalType": "uint256[]",
          "name": "amounts",
          "type": "uint256[]"
        },
        {
          "internalType": "uint256",
          "name": "vestStartTime",
          "type": "uint256"
        },
        {
          "internalType": "uint256",
          "name": "vestPeriod",
          "type": "uint256"
        },
        {
          "internalType": "uint256",
          "name": "vestPeriodSize",
          "type": "uint256"
        }
      ],
      "name": "multipleLockToVestAndTransfer",
      "outputs": [
        {
          "internalType": "bool",
          "name": "",
          "type": "bool"
        }
      ],
      "stateMutability": "nonpayable",
      "type": "function"
    },
    {
      "inputs": [
        {
          "internalType": "address[]",
          "name": "walletAddresses",
          "type": "address[]"
        },
        {
          "internalType": "address[]",
          "name": "recipients",
          "type": "address[]"
        },
        {
          "internalType": "uint256[]",
          "name": "amounts",
          "type": "uint256[]"
        },
        {
          "internalType": "uint256",
          "name": "vestStartTime",
          "type": "uint256"
        },
        {
          "internalType": "uint256",
          "name": "vestPeriod",
          "type": "uint256"
        },
        {
          "internalType": "uint256",
          "name": "vestPeriodSize",
          "type": "uint256"
        }
      ],
      "name": "multipleLockToVestAndTransfer",
      "outputs": [
        {
          "internalType": "bool",
          "name": "",
          "type": "bool"
        }
      ],
      "stateMutability": "nonpayable",
      "type": "function"
    },
    {
      "inputs": [],
      "name": "name",
      "outputs": [
        {
          "internalType": "string",
          "name": "",
          "type": "string"
        }
      ],
      "stateMutability": "view",
      "type": "function"
    },
    {
      "inputs": [],
      "name": "owner",
      "outputs": [
        {
          "internalType": "address",
          "name": "",
          "type": "address"
        }
      ],
      "stateMutability": "view",
      "type": "function"
    },
    {
      "inputs": [],
      "name": "renounceOwnership",
      "outputs": [],
      "stateMutability": "nonpayable",
      "type": "function"
    },
    {
      "inputs": [
        {
          "internalType": "address",
          "name": "user",
          "type": "address"
        },
        {
          "internalType": "bool",
          "name": "value",
          "type": "bool"
        }
      ],
      "name": "setAdmin",
      "outputs": [],
      "stateMutability": "nonpayable",
      "type": "function"
    },
    {
      "inputs": [],
      "name": "symbol",
      "outputs": [
        {
          "internalType": "string",
          "name": "",
          "type": "string"
        }
      ],
      "stateMutability": "view",
      "type": "function"
    },
    {
      "inputs": [],
      "name": "totalSupply",
      "outputs": [
        {
          "internalType": "uint256",
          "name": "",
          "type": "uint256"
        }
      ],
      "stateMutability": "view",
      "type": "function"
    },
    {
      "inputs": [
        {
          "internalType": "address",
          "name": "to",
          "type": "address"
        },
        {
          "internalType": "uint256",
          "name": "value",
          "type": "uint256"
        }
      ],
      "name": "transfer",
      "outputs": [
        {
          "internalType": "bool",
          "name": "",
          "type": "bool"
        }
      ],
      "stateMutability": "nonpayable",
      "type": "function"
    },
    {
      "inputs": [
        {
          "internalType": "address",
          "name": "from",
          "type": "address"
        },
        {
          "internalType": "address",
          "name": "to",
          "type": "address"
        },
        {
          "internalType": "uint256",
          "name": "value",
          "type": "uint256"
        }
      ],
      "name": "transferFrom",
      "outputs": [
        {
          "internalType": "bool",
          "name": "",
          "type": "bool"
        }
      ],
      "stateMutability": "nonpayable",
      "type": "function"
    },
    {
      "inputs": [
        {
          "internalType": "address",
          "name": "newOwner",
          "type": "address"
        }
      ],
      "name": "transferOwnership",
      "outputs": [],
      "stateMutability": "nonpayable",
      "type": "function"
    },
    {
      "inputs": [
        {
          "internalType": "address",
          "name": "",
          "type": "address"
        }
      ],
      "name": "userUnlockTime",
      "outputs": [
        {
          "internalType": "uint256",
          "name": "",
          "type": "uint256"
        }
      ],
      "stateMutability": "view",
      "type": "function"
    },
    {
      "inputs": [
        {
          "internalType": "address",
          "name": "senderAddress",
          "type": "address"
        },
        {
          "internalType": "uint256",
          "name": "index",
          "type": "uint256"
        },
        {
          "internalType": "uint256",
          "name": "amount",
          "type": "uint256"
        }
      ],
      "name": "withdraw",
      "outputs": [],
      "stateMutability": "nonpayable",
      "type": "function"
    }
  ],
  "bytecode": "0x60806040523480156200001157600080fd5b50336040518060400160405280600781526020017f44726970706572000000000000000000000000000000000000000000000000008152506040518060400160405280600381526020017f44525000000000000000000000000000000000000000000000000000000000008152508160039081620000909190620007a5565b508060049081620000a29190620007a5565b505050600073ffffffffffffffffffffffffffffffffffffffff168173ffffffffffffffffffffffffffffffffffffffff16036200011a5760006040517f1e4fbdf7000000000000000000000000000000000000000000000000000000008152600401620001119190620008d1565b60405180910390fd5b6200012b81620001a860201b60201c565b506200014a336b01f04ef12cb04cf1580000006200026e60201b60201c565b6001600760003373ffffffffffffffffffffffffffffffffffffffff1673ffffffffffffffffffffffffffffffffffffffff16815260200190815260200160002060006101000a81548160ff021916908315150217905550620009c3565b6000600560009054906101000a900473ffffffffffffffffffffffffffffffffffffffff16905081600560006101000a81548173ffffffffffffffffffffffffffffffffffffffff021916908373ffffffffffffffffffffffffffffffffffffffff1602179055508173ffffffffffffffffffffffffffffffffffffffff168173ffffffffffffffffffffffffffffffffffffffff167f8be0079c531659141344cd1fd0a4f28419497f9722a3daafe3b4186f6b6457e060405160405180910390a35050565b600073ffffffffffffffffffffffffffffffffffffffff168273ffffffffffffffffffffffffffffffffffffffff1603620002e35760006040517fec442f05000000000000000000000000000000000000000000000000000000008152600401620002da9190620008d1565b60405180910390fd5b620002f760008383620002fb60201b60201c565b5050565b600073ffffffffffffffffffffffffffffffffffffffff168373ffffffffffffffffffffffffffffffffffffffff1603620003515780600260008282546200034491906200091d565b9250508190555062000427565b60008060008573ffffffffffffffffffffffffffffffffffffffff1673ffffffffffffffffffffffffffffffffffffffff16815260200190815260200160002054905081811015620003e0578381836040517fe450d38c000000000000000000000000000000000000000000000000000000008152600401620003d79392919062000969565b60405180910390fd5b8181036000808673ffffffffffffffffffffffffffffffffffffffff1673ffffffffffffffffffffffffffffffffffffffff16815260200190815260200160002081905550505b600073ffffffffffffffffffffffffffffffffffffffff168273ffffffffffffffffffffffffffffffffffffffff1603620004725780600260008282540392505081905550620004bf565b806000808473ffffffffffffffffffffffffffffffffffffffff1673ffffffffffffffffffffffffffffffffffffffff168152602001908152602001600020600082825401925050819055505b8173ffffffffffffffffffffffffffffffffffffffff168373ffffffffffffffffffffffffffffffffffffffff167fddf252ad1be2c89b69c2b068fc378daa952ba7f163c4a11628f55a4df523b3ef836040516200051e9190620009a6565b60405180910390a3505050565b600081519050919050565b7f4e487b7100000000000000000000000000000000000000000000000000000000600052604160045260246000fd5b7f4e487b7100000000000000000000000000000000000000000000000000000000600052602260045260246000fd5b60006002820490506001821680620005ad57607f821691505b602082108103620005c357620005c262000565565b5b50919050565b60008190508160005260206000209050919050565b60006020601f8301049050919050565b600082821b905092915050565b6000600883026200062d7fffffffffffffffffffffffffffffffffffffffffffffffffffffffffffffffff82620005ee565b620006398683620005ee565b95508019841693508086168417925050509392505050565b6000819050919050565b6000819050919050565b600062000686620006806200067a8462000651565b6200065b565b62000651565b9050919050565b6000819050919050565b620006a28362000665565b620006ba620006b1826200068d565b848454620005fb565b825550505050565b600090565b620006d1620006c2565b620006de81848462000697565b505050565b5b818110156200070657620006fa600082620006c7565b600181019050620006e4565b5050565b601f82111562000755576200071f81620005c9565b6200072a84620005de565b810160208510156200073a578190505b620007526200074985620005de565b830182620006e3565b50505b505050565b600082821c905092915050565b60006200077a600019846008026200075a565b1980831691505092915050565b600062000795838362000767565b9150826002028217905092915050565b620007b0826200052b565b67ffffffffffffffff811115620007cc57620007cb62000536565b5b620007d8825462000594565b620007e58282856200070a565b600060209050601f8311600181146200081d576000841562000808578287015190505b62000814858262000787565b86555062000884565b601f1984166200082d86620005c9565b60005b82811015620008575784890151825560018201915060208501945060208101905062000830565b8683101562000877578489015162000873601f89168262000767565b8355505b6001600288020188555050505b505050505050565b600073ffffffffffffffffffffffffffffffffffffffff82169050919050565b6000620008b9826200088c565b9050919050565b620008cb81620008ac565b82525050565b6000602082019050620008e86000830184620008c0565b92915050565b7f4e487b7100000000000000000000000000000000000000000000000000000000600052601160045260246000fd5b60006200092a8262000651565b9150620009378362000651565b9250828201905080821115620009525762000951620008ee565b5b92915050565b620009638162000651565b82525050565b6000606082019050620009806000830186620008c0565b6200098f602083018562000958565b6200099e604083018462000958565b949350505050565b6000602082019050620009bd600083018462000958565b92915050565b613d5780620009d36000396000f3fe608060405234801561001057600080fd5b50600436106101cf5760003560e01c8063715018a6116101045780639c2006c1116100a2578063c5a9e0e411610071578063c5a9e0e4146105a1578063dd62ed3e146105d1578063f2fde38b14610601578063f4eb65e71461061d576101cf565b80639c2006c1146104f5578063a9059cbb14610525578063b5c5f67214610555578063bf56d61b14610571576101cf565b8063820ae3b9116100de578063820ae3b9146104585780638da5cb5b146104885780639410c396146104a657806395d89b41146104d7576101cf565b8063715018a61461040257806379cc67901461040c5780637a04a50d14610428576101cf565b806340c10f19116101715780634a4643f71161014b5780634a4643f7146103565780634b0bddd2146103865780636b6c8bad146103a257806370a08231146103d2576101cf565b806340c10f19146102ee57806342966c681461030a5780634862e63514610326576101cf565b806320cd7949116101ad57806320cd79491461024057806323b872dd1461027057806324d7806c146102a0578063313ce567146102d0576101cf565b806306fdde03146101d4578063095ea7b3146101f257806318160ddd14610222575b600080fd5b6101dc61064d565b6040516101e99190612f00565b60405180910390f35b61020c60048036038101906102079190612fca565b6106df565b6040516102199190613025565b60405180910390f35b61022a610702565b604051610237919061304f565b60405180910390f35b61025a6004803603810190610255919061320d565b61070c565b6040516102679190613025565b60405180910390f35b61028a600480360381019061028591906132c3565b610a7b565b6040516102979190613025565b60405180910390f35b6102ba60048036038101906102b59190613316565b610aaa565b6040516102c79190613025565b60405180910390f35b6102d8610aca565b6040516102e5919061335f565b60405180910390f35b61030860048036038101906103039190612fca565b610ad3565b005b610324600480360381019061031f919061337a565b610ae9565b005b610340600480360381019061033b9190613316565b610afd565b60405161034d919061304f565b60405180910390f35b610370600480360381019061036b9190613316565b610c45565b60405161037d919061304f565b60405180910390f35b6103a0600480360381019061039b91906133d3565b610c5d565b005b6103bc60048036038101906103b79190613413565b610cc0565b6040516103c99190613025565b60405180910390f35b6103ec60048036038101906103e79190613316565b610f32565b6040516103f9919061304f565b60405180910390f35b61040a610f7a565b005b61042660048036038101906104219190612fca565b610f8e565b005b610442600480360381019061043d9190612fca565b610fae565b60405161044f919061304f565b60405180910390f35b610472600480360381019061046d919061348e565b6111ad565b60405161047f9190613025565b60405180910390f35b6104906114ac565b60405161049d919061352a565b60405180910390f35b6104c060048036038101906104bb9190612fca565b6114d6565b6040516104ce929190613545565b60405180910390f35b6104df611858565b6040516104ec9190612f00565b60405180910390f35b61050f600480360381019061050a9190613316565b6118ea565b60405161051c919061304f565b60405180910390f35b61053f600480360381019061053a9190612fca565b611902565b60405161054c9190613025565b60405180910390f35b61056f600480360381019061056a919061356e565b611925565b005b61058b60048036038101906105869190613316565b611d07565b604051610598919061304f565b60405180910390f35b6105bb60048036038101906105b69190612fca565b611e10565b6040516105c8919061366d565b60405180910390f35b6105eb60048036038101906105e69190613688565b6120df565b6040516105f8919061304f565b60405180910390f35b61061b60048036038101906106169190613316565b612166565b005b6106376004803603810190610632919061378b565b6121ec565b6040516106449190613025565b60405180910390f35b60606003805461065c906138a1565b80601f0160208091040260200160405190810160405280929190818152602001828054610688906138a1565b80156106d55780601f106106aa576101008083540402835291602001916106d5565b820191906000526020600020905b8154815290600101906020018083116106b857829003601f168201915b5050505050905090565b6000806106ea612618565b90506106f7818585612620565b600191505092915050565b6000600254905090565b6000428411610750576040517f08c379a000000000000000000000000000000000000000000000000000000000815260040161074790613944565b60405180910390fd5b60008311610793576040517f08c379a000000000000000000000000000000000000000000000000000000000815260040161078a906139b0565b60405180910390fd5b845187879050146107d9576040517f08c379a00000000000000000000000000000000000000000000000000000000081526004016107d090613a42565b60405180910390fd5b600080600090505b88889050811015610a6b57816107f633610f32565b101561083957806040517feccb72c0000000000000000000000000000000000000000000000000000000008152600401610830919061304f565b60405180910390fd5b86818151811061084c5761084b613a62565b5b60200260200101518261085f9190613ac0565b9150600860003373ffffffffffffffffffffffffffffffffffffffff1673ffffffffffffffffffffffffffffffffffffffff1681526020019081526020016000206040518060e001604052808881526020018781526020018984815181106108ca576108c9613a62565b5b602002602001015181526020018681526020013373ffffffffffffffffffffffffffffffffffffffff1681526020018b8b8581811061090c5761090b613a62565b5b90506020020160208101906109219190613316565b73ffffffffffffffffffffffffffffffffffffffff168152602001600081525090806001815401808255809150506001900390600052602060002090600702016000909190919091506000820151816000015560208201518160010155604082015181600201556060820151816003015560808201518160040160006101000a81548173ffffffffffffffffffffffffffffffffffffffff021916908373ffffffffffffffffffffffffffffffffffffffff16021790555060a08201518160050160006101000a81548173ffffffffffffffffffffffffffffffffffffffff021916908373ffffffffffffffffffffffffffffffffffffffff16021790555060c082015181600601555050610a58610a37612618565b30898481518110610a4b57610a4a613a62565b5b6020026020010151612632565b8080610a6390613af4565b9150506107e1565b5060019150509695505050505050565b600080610a86612618565b9050610a93858285612726565b610a9e858585612632565b60019150509392505050565b60076020528060005260406000206000915054906101000a900460ff1681565b60006012905090565b610adb6127ba565b610ae58282612841565b5050565b610afa610af4612618565b826128c3565b50565b6000600760003373ffffffffffffffffffffffffffffffffffffffff1673ffffffffffffffffffffffffffffffffffffffff16815260200190815260200160002060009054906101000a900460ff16158015610b8557508173ffffffffffffffffffffffffffffffffffffffff163373ffffffffffffffffffffffffffffffffffffffff1614155b15610bbc576040517f344fd58600000000000000000000000000000000000000000000000000000000815260040160405180910390fd5b6000805b600860008573ffffffffffffffffffffffffffffffffffffffff1673ffffffffffffffffffffffffffffffffffffffff16815260200190815260200160002080549050811015610c3b576000610c1685836114d6565b5090508083610c259190613ac0565b9250508080610c3390613af4565b915050610bc0565b5080915050919050565b60096020528060005260406000206000915090505481565b610c656127ba565b80600760008473ffffffffffffffffffffffffffffffffffffffff1673ffffffffffffffffffffffffffffffffffffffff16815260200190815260200160002060006101000a81548160ff0219169083151502179055505050565b6000428411610d04576040517f08c379a0000000000000000000000000000000000000000000000000000000008152600401610cfb90613944565b60405180910390fd5b60008311610d47576040517f08c379a0000000000000000000000000000000000000000000000000000000008152600401610d3e906139b0565b60405180910390fd5b85610d5133610f32565b1015610d89576040517f4325bdb100000000000000000000000000000000000000000000000000000000815260040160405180910390fd5b600860003373ffffffffffffffffffffffffffffffffffffffff1673ffffffffffffffffffffffffffffffffffffffff1681526020019081526020016000206040518060e001604052808681526020018581526020018881526020018481526020013373ffffffffffffffffffffffffffffffffffffffff1681526020018773ffffffffffffffffffffffffffffffffffffffff168152602001600081525090806001815401808255809150506001900390600052602060002090600702016000909190919091506000820151816000015560208201518160010155604082015181600201556060820151816003015560808201518160040160006101000a81548173ffffffffffffffffffffffffffffffffffffffff021916908373ffffffffffffffffffffffffffffffffffffffff16021790555060a08201518160050160006101000a81548173ffffffffffffffffffffffffffffffffffffffff021916908373ffffffffffffffffffffffffffffffffffffffff16021790555060c082015181600601555050610f25610f1e612618565b3088612632565b6001905095945050505050565b60008060008373ffffffffffffffffffffffffffffffffffffffff1673ffffffffffffffffffffffffffffffffffffffff168152602001908152602001600020549050919050565b610f826127ba565b610f8c6000612945565b565b610fa082610f9a612618565b83612726565b610faa82826128c3565b5050565b6000600760003373ffffffffffffffffffffffffffffffffffffffff1673ffffffffffffffffffffffffffffffffffffffff16815260200190815260200160002060009054906101000a900460ff1615801561103657508273ffffffffffffffffffffffffffffffffffffffff163373ffffffffffffffffffffffffffffffffffffffff1614155b80156110f05750600860008473ffffffffffffffffffffffffffffffffffffffff1673ffffffffffffffffffffffffffffffffffffffff168152602001908152602001600020828154811061108e5761108d613a62565b5b906000526020600020906007020160050160009054906101000a900473ffffffffffffffffffffffffffffffffffffffff1673ffffffffffffffffffffffffffffffffffffffff163373ffffffffffffffffffffffffffffffffffffffff1614155b15611127576040517f344fd58600000000000000000000000000000000000000000000000000000000815260040160405180910390fd5b600061113384846114d6565b915050600860008573ffffffffffffffffffffffffffffffffffffffff1673ffffffffffffffffffffffffffffffffffffffff168152602001908152602001600020838154811061118757611186613a62565b5b906000526020600020906007020160060154816111a49190613b3c565b91505092915050565b6000600760003373ffffffffffffffffffffffffffffffffffffffff1673ffffffffffffffffffffffffffffffffffffffff16815260200190815260200160002060009054906101000a900460ff1661123b576040517f08c379a000000000000000000000000000000000000000000000000000000000815260040161123290613bbc565b60405180910390fd5b42841161127d576040517f08c379a000000000000000000000000000000000000000000000000000000000815260040161127490613944565b60405180910390fd5b600083116112c0576040517f08c379a00000000000000000000000000000000000000000000000000000000081526004016112b7906139b0565b60405180910390fd5b846112ca33610f32565b1015611302576040517f4325bdb100000000000000000000000000000000000000000000000000000000815260040160405180910390fd5b600860008873ffffffffffffffffffffffffffffffffffffffff1673ffffffffffffffffffffffffffffffffffffffff1681526020019081526020016000206040518060e001604052808681526020018581526020018781526020018481526020018973ffffffffffffffffffffffffffffffffffffffff1681526020018873ffffffffffffffffffffffffffffffffffffffff168152602001600081525090806001815401808255809150506001900390600052602060002090600702016000909190919091506000820151816000015560208201518160010155604082015181600201556060820151816003015560808201518160040160006101000a81548173ffffffffffffffffffffffffffffffffffffffff021916908373ffffffffffffffffffffffffffffffffffffffff16021790555060a08201518160050160006101000a81548173ffffffffffffffffffffffffffffffffffffffff021916908373ffffffffffffffffffffffffffffffffffffffff16021790555060c08201518160060155505061149e611497612618565b3087612632565b600190509695505050505050565b6000600560009054906101000a900473ffffffffffffffffffffffffffffffffffffffff16905090565b600080600760003373ffffffffffffffffffffffffffffffffffffffff1673ffffffffffffffffffffffffffffffffffffffff16815260200190815260200160002060009054906101000a900460ff1615801561155f57508373ffffffffffffffffffffffffffffffffffffffff163373ffffffffffffffffffffffffffffffffffffffff1614155b80156116195750600860008573ffffffffffffffffffffffffffffffffffffffff1673ffffffffffffffffffffffffffffffffffffffff16815260200190815260200160002083815481106115b7576115b6613a62565b5b906000526020600020906007020160050160009054906101000a900473ffffffffffffffffffffffffffffffffffffffff1673ffffffffffffffffffffffffffffffffffffffff163373ffffffffffffffffffffffffffffffffffffffff1614155b15611650576040517f344fd58600000000000000000000000000000000000000000000000000000000815260040160405180910390fd5b6000806000600860008873ffffffffffffffffffffffffffffffffffffffff1673ffffffffffffffffffffffffffffffffffffffff16815260200190815260200160002086815481106116a6576116a5613a62565b5b90600052602060002090600702016040518060e0016040529081600082015481526020016001820154815260200160028201548152602001600382015481526020016004820160009054906101000a900473ffffffffffffffffffffffffffffffffffffffff1673ffffffffffffffffffffffffffffffffffffffff1673ffffffffffffffffffffffffffffffffffffffff1681526020016005820160009054906101000a900473ffffffffffffffffffffffffffffffffffffffff1673ffffffffffffffffffffffffffffffffffffffff1673ffffffffffffffffffffffffffffffffffffffff16815260200160068201548152505090506000816000015142116117b35760006117d3565b81606001518260000151426117c89190613b3c565b6117d29190613c0b565b5b9050600081036117f757816040015193506000925083839550955050505050611851565b60008260200151821161180a5781611810565b82602001515b905082602001518184604001516118279190613c3c565b6118319190613c0b565b93508383604001516118439190613b3c565b945084849650965050505050505b9250929050565b606060048054611867906138a1565b80601f0160208091040260200160405190810160405280929190818152602001828054611893906138a1565b80156118e05780601f106118b5576101008083540402835291602001916118e0565b820191906000526020600020905b8154815290600101906020018083116118c357829003601f168201915b5050505050905090565b60066020528060005260406000206000915090505481565b60008061190d612618565b905061191a818585612632565b600191505092915050565b600860008473ffffffffffffffffffffffffffffffffffffffff1673ffffffffffffffffffffffffffffffffffffffff168152602001908152602001600020828154811061197657611975613a62565b5b906000526020600020906007020160050160009054906101000a900473ffffffffffffffffffffffffffffffffffffffff1673ffffffffffffffffffffffffffffffffffffffff163373ffffffffffffffffffffffffffffffffffffffff1614611a15576040517f08c379a0000000000000000000000000000000000000000000000000000000008152600401611a0c90613cca565b60405180910390fd5b6000611a2184846114d6565b9150506000600860008673ffffffffffffffffffffffffffffffffffffffff1673ffffffffffffffffffffffffffffffffffffffff1681526020019081526020016000208481548110611a7757611a76613a62565b5b90600052602060002090600702016040518060e0016040529081600082015481526020016001820154815260200160028201548152602001600382015481526020016004820160009054906101000a900473ffffffffffffffffffffffffffffffffffffffff1673ffffffffffffffffffffffffffffffffffffffff1673ffffffffffffffffffffffffffffffffffffffff1681526020016005820160009054906101000a900473ffffffffffffffffffffffffffffffffffffffff1673ffffffffffffffffffffffffffffffffffffffff1673ffffffffffffffffffffffffffffffffffffffff1681526020016006820154815250509050828160c0015183611b819190613b3c565b1015611bb9576040517f9fdc38fe00000000000000000000000000000000000000000000000000000000815260040160405180910390fd5b828160c00151611bc99190613ac0565b8160c001818152505080600860008773ffffffffffffffffffffffffffffffffffffffff1673ffffffffffffffffffffffffffffffffffffffff1681526020019081526020016000208581548110611c2457611c23613a62565b5b90600052602060002090600702016000820151816000015560208201518160010155604082015181600201556060820151816003015560808201518160040160006101000a81548173ffffffffffffffffffffffffffffffffffffffff021916908373ffffffffffffffffffffffffffffffffffffffff16021790555060a08201518160050160006101000a81548173ffffffffffffffffffffffffffffffffffffffff021916908373ffffffffffffffffffffffffffffffffffffffff16021790555060c08201518160060155905050611d00303385612632565b5050505050565b6000600760003373ffffffffffffffffffffffffffffffffffffffff1673ffffffffffffffffffffffffffffffffffffffff16815260200190815260200160002060009054906101000a900460ff16158015611d8f57508173ffffffffffffffffffffffffffffffffffffffff163373ffffffffffffffffffffffffffffffffffffffff1614155b15611dc6576040517f344fd58600000000000000000000000000000000000000000000000000000000815260040160405180910390fd5b600860008373ffffffffffffffffffffffffffffffffffffffff1673ffffffffffffffffffffffffffffffffffffffff168152602001908152602001600020805490509050919050565b611e18612e07565b600760003373ffffffffffffffffffffffffffffffffffffffff1673ffffffffffffffffffffffffffffffffffffffff16815260200190815260200160002060009054906101000a900460ff16158015611e9e57508273ffffffffffffffffffffffffffffffffffffffff163373ffffffffffffffffffffffffffffffffffffffff1614155b8015611f585750600860008473ffffffffffffffffffffffffffffffffffffffff1673ffffffffffffffffffffffffffffffffffffffff1681526020019081526020016000208281548110611ef657611ef5613a62565b5b906000526020600020906007020160050160009054906101000a900473ffffffffffffffffffffffffffffffffffffffff1673ffffffffffffffffffffffffffffffffffffffff163373ffffffffffffffffffffffffffffffffffffffff1614155b15611f8f576040517f344fd58600000000000000000000000000000000000000000000000000000000815260040160405180910390fd5b600860008473ffffffffffffffffffffffffffffffffffffffff1673ffffffffffffffffffffffffffffffffffffffff1681526020019081526020016000208281548110611fe057611fdf613a62565b5b90600052602060002090600702016040518060e0016040529081600082015481526020016001820154815260200160028201548152602001600382015481526020016004820160009054906101000a900473ffffffffffffffffffffffffffffffffffffffff1673ffffffffffffffffffffffffffffffffffffffff1673ffffffffffffffffffffffffffffffffffffffff1681526020016005820160009054906101000a900473ffffffffffffffffffffffffffffffffffffffff1673ffffffffffffffffffffffffffffffffffffffff1673ffffffffffffffffffffffffffffffffffffffff168152602001600682015481525050905092915050565b6000600160008473ffffffffffffffffffffffffffffffffffffffff1673ffffffffffffffffffffffffffffffffffffffff16815260200190815260200160002060008373ffffffffffffffffffffffffffffffffffffffff1673ffffffffffffffffffffffffffffffffffffffff16815260200190815260200160002054905092915050565b61216e6127ba565b600073ffffffffffffffffffffffffffffffffffffffff168173ffffffffffffffffffffffffffffffffffffffff16036121e05760006040517f1e4fbdf70000000000000000000000000000000000000000000000000000000081526004016121d7919061352a565b60405180910390fd5b6121e981612945565b50565b6000600760003373ffffffffffffffffffffffffffffffffffffffff1673ffffffffffffffffffffffffffffffffffffffff16815260200190815260200160002060009054906101000a900460ff1661227a576040517f08c379a000000000000000000000000000000000000000000000000000000000815260040161227190613bbc565b60405180910390fd5b4284116122bc576040517f08c379a00000000000000000000000000000000000000000000000000000000081526004016122b390613944565b60405180910390fd5b600083116122ff576040517f08c379a00000000000000000000000000000000000000000000000000000000081526004016122f6906139b0565b60405180910390fd5b8451885114612343576040517f08c379a000000000000000000000000000000000000000000000000000000000815260040161233a90613a42565b60405180910390fd5b600080600090505b8951811015612607578161235e33610f32565b10156123a157806040517feccb72c0000000000000000000000000000000000000000000000000000000008152600401612398919061304f565b60405180910390fd5b8681815181106123b4576123b3613a62565b5b6020026020010151826123c79190613ac0565b9150600860008b83815181106123e0576123df613a62565b5b602002602001015173ffffffffffffffffffffffffffffffffffffffff1673ffffffffffffffffffffffffffffffffffffffff1681526020019081526020016000206040518060e0016040528088815260200187815260200189848151811061244c5761244b613a62565b5b602002602001015181526020018681526020018c848151811061247257612471613a62565b5b602002602001015173ffffffffffffffffffffffffffffffffffffffff1681526020018b8b858181106124a8576124a7613a62565b5b90506020020160208101906124bd9190613316565b73ffffffffffffffffffffffffffffffffffffffff168152602001600081525090806001815401808255809150506001900390600052602060002090600702016000909190919091506000820151816000015560208201518160010155604082015181600201556060820151816003015560808201518160040160006101000a81548173ffffffffffffffffffffffffffffffffffffffff021916908373ffffffffffffffffffffffffffffffffffffffff16021790555060a08201518160050160006101000a81548173ffffffffffffffffffffffffffffffffffffffff021916908373ffffffffffffffffffffffffffffffffffffffff16021790555060c0820151816006015550506125f46125d3612618565b308984815181106125e7576125e6613a62565b5b6020026020010151612632565b80806125ff90613af4565b91505061234b565b506001915050979650505050505050565b600033905090565b61262d8383836001612a0b565b505050565b600073ffffffffffffffffffffffffffffffffffffffff168373ffffffffffffffffffffffffffffffffffffffff16036126a45760006040517f96c6fd1e00000000000000000000000000000000000000000000000000000000815260040161269b919061352a565b60405180910390fd5b600073ffffffffffffffffffffffffffffffffffffffff168273ffffffffffffffffffffffffffffffffffffffff16036127165760006040517fec442f0500000000000000000000000000000000000000000000000000000000815260040161270d919061352a565b60405180910390fd5b612721838383612be2565b505050565b600061273284846120df565b90507fffffffffffffffffffffffffffffffffffffffffffffffffffffffffffffffff81146127b457818110156127a4578281836040517ffb8f41b200000000000000000000000000000000000000000000000000000000815260040161279b93929190613cea565b60405180910390fd5b6127b384848484036000612a0b565b5b50505050565b6127c2612618565b73ffffffffffffffffffffffffffffffffffffffff166127e06114ac565b73ffffffffffffffffffffffffffffffffffffffff161461283f57612803612618565b6040517f118cdaa7000000000000000000000000000000000000000000000000000000008152600401612836919061352a565b60405180910390fd5b565b600073ffffffffffffffffffffffffffffffffffffffff168273ffffffffffffffffffffffffffffffffffffffff16036128b35760006040517fec442f050000000000000000000000000000000000000000000000000000000081526004016128aa919061352a565b60405180910390fd5b6128bf60008383612be2565b5050565b600073ffffffffffffffffffffffffffffffffffffffff168273ffffffffffffffffffffffffffffffffffffffff16036129355760006040517f96c6fd1e00000000000000000000000000000000000000000000000000000000815260040161292c919061352a565b60405180910390fd5b61294182600083612be2565b5050565b6000600560009054906101000a900473ffffffffffffffffffffffffffffffffffffffff16905081600560006101000a81548173ffffffffffffffffffffffffffffffffffffffff021916908373ffffffffffffffffffffffffffffffffffffffff1602179055508173ffffffffffffffffffffffffffffffffffffffff168173ffffffffffffffffffffffffffffffffffffffff167f8be0079c531659141344cd1fd0a4f28419497f9722a3daafe3b4186f6b6457e060405160405180910390a35050565b600073ffffffffffffffffffffffffffffffffffffffff168473ffffffffffffffffffffffffffffffffffffffff1603612a7d5760006040517fe602df05000000000000000000000000000000000000000000000000000000008152600401612a74919061352a565b60405180910390fd5b600073ffffffffffffffffffffffffffffffffffffffff168373ffffffffffffffffffffffffffffffffffffffff1603612aef5760006040517f94280d62000000000000000000000000000000000000000000000000000000008152600401612ae6919061352a565b60405180910390fd5b81600160008673ffffffffffffffffffffffffffffffffffffffff1673ffffffffffffffffffffffffffffffffffffffff16815260200190815260200160002060008573ffffffffffffffffffffffffffffffffffffffff1673ffffffffffffffffffffffffffffffffffffffff168152602001908152602001600020819055508015612bdc578273ffffffffffffffffffffffffffffffffffffffff168473ffffffffffffffffffffffffffffffffffffffff167f8c5be1e5ebec7d5bd14f71427d1e84f3dd0314c0f7b2291e5b200ac8c7c3b92584604051612bd3919061304f565b60405180910390a35b50505050565b600073ffffffffffffffffffffffffffffffffffffffff168373ffffffffffffffffffffffffffffffffffffffff1603612c34578060026000828254612c289190613ac0565b92505081905550612d07565b60008060008573ffffffffffffffffffffffffffffffffffffffff1673ffffffffffffffffffffffffffffffffffffffff16815260200190815260200160002054905081811015612cc0578381836040517fe450d38c000000000000000000000000000000000000000000000000000000008152600401612cb793929190613cea565b60405180910390fd5b8181036000808673ffffffffffffffffffffffffffffffffffffffff1673ffffffffffffffffffffffffffffffffffffffff16815260200190815260200160002081905550505b600073ffffffffffffffffffffffffffffffffffffffff168273ffffffffffffffffffffffffffffffffffffffff1603612d505780600260008282540392505081905550612d9d565b806000808473ffffffffffffffffffffffffffffffffffffffff1673ffffffffffffffffffffffffffffffffffffffff168152602001908152602001600020600082825401925050819055505b8173ffffffffffffffffffffffffffffffffffffffff168373ffffffffffffffffffffffffffffffffffffffff167fddf252ad1be2c89b69c2b068fc378daa952ba7f163c4a11628f55a4df523b3ef83604051612dfa919061304f565b60405180910390a3505050565b6040518060e0016040528060008152602001600081526020016000815260200160008152602001600073ffffffffffffffffffffffffffffffffffffffff168152602001600073ffffffffffffffffffffffffffffffffffffffff168152602001600081525090565b600081519050919050565b600082825260208201905092915050565b60005b83811015612eaa578082015181840152602081019050612e8f565b60008484015250505050565b6000601f19601f8301169050919050565b6000612ed282612e70565b612edc8185612e7b565b9350612eec818560208601612e8c565b612ef581612eb6565b840191505092915050565b60006020820190508181036000830152612f1a8184612ec7565b905092915050565b6000604051905090565b600080fd5b600080fd5b600073ffffffffffffffffffffffffffffffffffffffff82169050919050565b6000612f6182612f36565b9050919050565b612f7181612f56565b8114612f7c57600080fd5b50565b600081359050612f8e81612f68565b92915050565b6000819050919050565b612fa781612f94565b8114612fb257600080fd5b50565b600081359050612fc481612f9e565b92915050565b60008060408385031215612fe157612fe0612f2c565b5b6000612fef85828601612f7f565b925050602061300085828601612fb5565b9150509250929050565b60008115159050919050565b61301f8161300a565b82525050565b600060208201905061303a6000830184613016565b92915050565b61304981612f94565b82525050565b60006020820190506130646000830184613040565b92915050565b600080fd5b600080fd5b600080fd5b60008083601f84011261308f5761308e61306a565b5b8235905067ffffffffffffffff8111156130ac576130ab61306f565b5b6020830191508360208202830111156130c8576130c7613074565b5b9250929050565b7f4e487b7100000000000000000000000000000000000000000000000000000000600052604160045260246000fd5b61310782612eb6565b810181811067ffffffffffffffff82111715613126576131256130cf565b5b80604052505050565b6000613139612f22565b905061314582826130fe565b919050565b600067ffffffffffffffff821115613165576131646130cf565b5b602082029050602081019050919050565b60006131896131848461314a565b61312f565b905080838252602082019050602084028301858111156131ac576131ab613074565b5b835b818110156131d557806131c18882612fb5565b8452602084019350506020810190506131ae565b5050509392505050565b600082601f8301126131f4576131f361306a565b5b8135613204848260208601613176565b91505092915050565b60008060008060008060a0878903121561322a57613229612f2c565b5b600087013567ffffffffffffffff81111561324857613247612f31565b5b61325489828a01613079565b9650965050602087013567ffffffffffffffff81111561327757613276612f31565b5b61328389828a016131df565b945050604061329489828a01612fb5565b93505060606132a589828a01612fb5565b92505060806132b689828a01612fb5565b9150509295509295509295565b6000806000606084860312156132dc576132db612f2c565b5b60006132ea86828701612f7f565b93505060206132fb86828701612f7f565b925050604061330c86828701612fb5565b9150509250925092565b60006020828403121561332c5761332b612f2c565b5b600061333a84828501612f7f565b91505092915050565b600060ff82169050919050565b61335981613343565b82525050565b60006020820190506133746000830184613350565b92915050565b6000602082840312156133905761338f612f2c565b5b600061339e84828501612fb5565b91505092915050565b6133b08161300a565b81146133bb57600080fd5b50565b6000813590506133cd816133a7565b92915050565b600080604083850312156133ea576133e9612f2c565b5b60006133f885828601612f7f565b9250506020613409858286016133be565b9150509250929050565b600080600080600060a0868803121561342f5761342e612f2c565b5b600061343d88828901612fb5565b955050602061344e88828901612f7f565b945050604061345f88828901612fb5565b935050606061347088828901612fb5565b925050608061348188828901612fb5565b9150509295509295909350565b60008060008060008060c087890312156134ab576134aa612f2c565b5b60006134b989828a01612f7f565b96505060206134ca89828a01612f7f565b95505060406134db89828a01612fb5565b94505060606134ec89828a01612fb5565b93505060806134fd89828a01612fb5565b92505060a061350e89828a01612fb5565b9150509295509295509295565b61352481612f56565b82525050565b600060208201905061353f600083018461351b565b92915050565b600060408201905061355a6000830185613040565b6135676020830184613040565b9392505050565b60008060006060848603121561358757613586612f2c565b5b600061359586828701612f7f565b93505060206135a686828701612fb5565b92505060406135b786828701612fb5565b9150509250925092565b6135ca81612f94565b82525050565b6135d981612f56565b82525050565b60e0820160008201516135f560008501826135c1565b50602082015161360860208501826135c1565b50604082015161361b60408501826135c1565b50606082015161362e60608501826135c1565b50608082015161364160808501826135d0565b5060a082015161365460a08501826135d0565b5060c082015161366760c08501826135c1565b50505050565b600060e08201905061368260008301846135df565b92915050565b6000806040838503121561369f5761369e612f2c565b5b60006136ad85828601612f7f565b92505060206136be85828601612f7f565b9150509250929050565b600067ffffffffffffffff8211156136e3576136e26130cf565b5b602082029050602081019050919050565b6000613707613702846136c8565b61312f565b9050808382526020820190506020840283018581111561372a57613729613074565b5b835b81811015613753578061373f8882612f7f565b84526020840193505060208101905061372c565b5050509392505050565b600082601f8301126137725761377161306a565b5b81356137828482602086016136f4565b91505092915050565b600080600080600080600060c0888a0312156137aa576137a9612f2c565b5b600088013567ffffffffffffffff8111156137c8576137c7612f31565b5b6137d48a828b0161375d565b975050602088013567ffffffffffffffff8111156137f5576137f4612f31565b5b6138018a828b01613079565b9650965050604088013567ffffffffffffffff81111561382457613823612f31565b5b6138308a828b016131df565b94505060606138418a828b01612fb5565b93505060806138528a828b01612fb5565b92505060a06138638a828b01612fb5565b91505092959891949750929550565b7f4e487b7100000000000000000000000000000000000000000000000000000000600052602260045260246000fd5b600060028204905060018216806138b957607f821691505b6020821081036138cc576138cb613872565b5b50919050565b7f5665737420537461727420446174652073686f756c64206265206c617465722060008201527f7468616e206e6f77000000000000000000000000000000000000000000000000602082015250565b600061392e602883612e7b565b9150613939826138d2565b604082019050919050565b6000602082019050818103600083015261395d81613921565b9050919050565b7f5665737420506572696f6420697320746f6f2073686f72740000000000000000600082015250565b600061399a601883612e7b565b91506139a582613964565b602082019050919050565b600060208201905081810360008301526139c98161398d565b9050919050565b7f546865206e756d626572206f6620616464726573736573206d7573742062652060008201527f657175616c207769746820746865206e756d626572206f6620616d6f756e7400602082015250565b6000613a2c603f83612e7b565b9150613a37826139d0565b604082019050919050565b60006020820190508181036000830152613a5b81613a1f565b9050919050565b7f4e487b7100000000000000000000000000000000000000000000000000000000600052603260045260246000fd5b7f4e487b7100000000000000000000000000000000000000000000000000000000600052601160045260246000fd5b6000613acb82612f94565b9150613ad683612f94565b9250828201905080821115613aee57613aed613a91565b5b92915050565b6000613aff82612f94565b91507fffffffffffffffffffffffffffffffffffffffffffffffffffffffffffffffff8203613b3157613b30613a91565b5b600182019050919050565b6000613b4782612f94565b9150613b5283612f94565b9250828203905081811115613b6a57613b69613a91565b5b92915050565b7f41646d696e206973206f6e6c7920616c6c6f7765642100000000000000000000600082015250565b6000613ba6601683612e7b565b9150613bb182613b70565b602082019050919050565b60006020820190508181036000830152613bd581613b99565b9050919050565b7f4e487b7100000000000000000000000000000000000000000000000000000000600052601260045260246000fd5b6000613c1682612f94565b9150613c2183612f94565b925082613c3157613c30613bdc565b5b828204905092915050565b6000613c4782612f94565b9150613c5283612f94565b9250828202613c6081612f94565b91508282048414831517613c7757613c76613a91565b5b5092915050565b7f4f6e6c792052656365697069656e742043616e20576974686472617700000000600082015250565b6000613cb4601c83612e7b565b9150613cbf82613c7e565b602082019050919050565b60006020820190508181036000830152613ce381613ca7565b9050919050565b6000606082019050613cff600083018661351b565b613d0c6020830185613040565b613d196040830184613040565b94935050505056fea26469706673582212200d224d9ef26a57fd66323e3344e74e8245040ca05a0b420f8b68e09709323f0564736f6c63430008140033",
  "linkReferences": {},
  "deployedLinkReferences": {}
}